{
  "contractName": "RegistrarMigration",
  "abi": [
    {
      "inputs": [
        {
          "internalType": "contract OldBaseRegistrarImplementation",
          "name": "_old",
          "type": "address"
        },
        {
          "internalType": "contract BaseRegistrarImplementation",
          "name": "_new",
          "type": "address"
        },
        {
          "internalType": "contract AbstractSubdomainRegistrar",
          "name": "_oldSubdomainRegistrar",
          "type": "address"
        },
        {
          "internalType": "contract AbstractSubdomainRegistrar",
          "name": "_newSubdomainRegistrar",
          "type": "address"
        }
      ],
      "payable": false,
      "stateMutability": "nonpayable",
      "type": "constructor"
    },
    {
      "constant": true,
      "inputs": [],
      "name": "baseNode",
      "outputs": [
        {
          "internalType": "bytes32",
          "name": "",
          "type": "bytes32"
        }
      ],
      "payable": false,
      "stateMutability": "view",
      "type": "function"
    },
    {
      "constant": true,
      "inputs": [],
      "name": "legacyRegistrar",
      "outputs": [
        {
          "internalType": "contract Registrar",
          "name": "",
          "type": "address"
        }
      ],
      "payable": false,
      "stateMutability": "view",
      "type": "function"
    },
    {
      "constant": true,
      "inputs": [],
      "name": "newENS",
      "outputs": [
        {
          "internalType": "contract ENS",
          "name": "",
          "type": "address"
        }
      ],
      "payable": false,
      "stateMutability": "view",
      "type": "function"
    },
    {
      "constant": true,
      "inputs": [],
      "name": "newRegistrar",
      "outputs": [
        {
          "internalType": "contract BaseRegistrarImplementation",
          "name": "",
          "type": "address"
        }
      ],
      "payable": false,
      "stateMutability": "view",
      "type": "function"
    },
    {
      "constant": true,
      "inputs": [],
      "name": "newSubdomainRegistrar",
      "outputs": [
        {
          "internalType": "contract AbstractSubdomainRegistrar",
          "name": "",
          "type": "address"
        }
      ],
      "payable": false,
      "stateMutability": "view",
      "type": "function"
    },
    {
      "constant": true,
      "inputs": [],
      "name": "oldENS",
      "outputs": [
        {
          "internalType": "contract ENS",
          "name": "",
          "type": "address"
        }
      ],
      "payable": false,
      "stateMutability": "view",
      "type": "function"
    },
    {
      "constant": true,
      "inputs": [],
      "name": "oldRegistrar",
      "outputs": [
        {
          "internalType": "contract OldBaseRegistrarImplementation",
          "name": "",
          "type": "address"
        }
      ],
      "payable": false,
      "stateMutability": "view",
      "type": "function"
    },
    {
      "constant": true,
      "inputs": [],
      "name": "oldSubdomainRegistrar",
      "outputs": [
        {
          "internalType": "contract AbstractSubdomainRegistrar",
          "name": "",
          "type": "address"
        }
      ],
      "payable": false,
      "stateMutability": "view",
      "type": "function"
    },
    {
      "constant": false,
      "inputs": [
        {
          "internalType": "uint256",
          "name": "tokenId",
          "type": "uint256"
        }
      ],
      "name": "migrate",
      "outputs": [],
      "payable": false,
      "stateMutability": "nonpayable",
      "type": "function"
    },
    {
      "constant": false,
      "inputs": [
        {
          "internalType": "uint256[]",
          "name": "tokenIds",
          "type": "uint256[]"
        }
      ],
      "name": "migrateAll",
      "outputs": [],
      "payable": false,
      "stateMutability": "nonpayable",
      "type": "function"
    },
    {
      "constant": false,
      "inputs": [
        {
          "internalType": "bytes32",
          "name": "label",
          "type": "bytes32"
        }
      ],
      "name": "migrateLegacy",
      "outputs": [],
      "payable": false,
      "stateMutability": "nonpayable",
      "type": "function"
    },
    {
      "constant": false,
      "inputs": [
        {
          "internalType": "bytes32[]",
          "name": "labels",
          "type": "bytes32[]"
        }
      ],
      "name": "migrateAllLegacy",
      "outputs": [],
      "payable": false,
      "stateMutability": "nonpayable",
      "type": "function"
    }
  ],
  "bytecode": "0x60806040523480156200001157600080fd5b5060405162001e1538038062001e15833981810160405260808110156200003757600080fd5b810190808051906020019092919080519060200190929190805190602001909291908051906020019092919050505083600260006101000a81548173ffffffffffffffffffffffffffffffffffffffff021916908373ffffffffffffffffffffffffffffffffffffffff1602179055508373ffffffffffffffffffffffffffffffffffffffff16633f15457f6040518163ffffffff1660e01b815260040160206040518083038186803b158015620000ee57600080fd5b505afa15801562000103573d6000803e3d6000fd5b505050506040513d60208110156200011a57600080fd5b8101908080519060200190929190505050600460006101000a81548173ffffffffffffffffffffffffffffffffffffffff021916908373ffffffffffffffffffffffffffffffffffffffff1602179055508373ffffffffffffffffffffffffffffffffffffffff1663ddf7fcb06040518163ffffffff1660e01b815260040160206040518083038186803b158015620001b257600080fd5b505afa158015620001c7573d6000803e3d6000fd5b505050506040513d6020811015620001de57600080fd5b81019080805190602001909291905050506008819055508373ffffffffffffffffffffffffffffffffffffffff1663ab14ec596040518163ffffffff1660e01b815260040160206040518083038186803b1580156200023c57600080fd5b505afa15801562000251573d6000803e3d6000fd5b505050506040513d60208110156200026857600080fd5b81019080805190602001909291905050506000806101000a81548173ffffffffffffffffffffffffffffffffffffffff021916908373ffffffffffffffffffffffffffffffffffffffff1602179055508373ffffffffffffffffffffffffffffffffffffffff16634ae05da76040518163ffffffff1660e01b815260040160206040518083038186803b158015620002ff57600080fd5b505afa15801562000314573d6000803e3d6000fd5b505050506040513d60208110156200032b57600080fd5b810190808051906020019092919050505060018190555081600660006101000a81548173ffffffffffffffffffffffffffffffffffffffff021916908373ffffffffffffffffffffffffffffffffffffffff16021790555082600360006101000a81548173ffffffffffffffffffffffffffffffffffffffff021916908373ffffffffffffffffffffffffffffffffffffffff1602179055508273ffffffffffffffffffffffffffffffffffffffff16633f15457f6040518163ffffffff1660e01b815260040160206040518083038186803b1580156200040b57600080fd5b505afa15801562000420573d6000803e3d6000fd5b505050506040513d60208110156200043757600080fd5b8101908080519060200190929190505050600560006101000a81548173ffffffffffffffffffffffffffffffffffffffff021916908373ffffffffffffffffffffffffffffffffffffffff1602179055506008548373ffffffffffffffffffffffffffffffffffffffff1663ddf7fcb06040518163ffffffff1660e01b815260040160206040518083038186803b158015620004d257600080fd5b505afa158015620004e7573d6000803e3d6000fd5b505050506040513d6020811015620004fe57600080fd5b8101908080519060200190929190505050146200051a57600080fd5b80600760006101000a81548173ffffffffffffffffffffffffffffffffffffffff021916908373ffffffffffffffffffffffffffffffffffffffff160217905550505050506118a6806200056f6000396000f3fe608060405234801561001057600080fd5b50600436106100b45760003560e01c80636a657777116100715780636a6577771461023d57806378635026146102875780638e7e879f146102d157806393a8dddb1461034a57806398df3cb214610394578063ddf7fcb01461040d576100b4565b8063156f54db146100b95780632610ad59146100e75780632d2f3f27146101315780633c9b51b41461017b57806341c5e244146101c5578063454b06081461020f575b600080fd5b6100e5600480360360208110156100cf57600080fd5b810190808035906020019092919050505061042b565b005b6100ef6105c8565b604051808273ffffffffffffffffffffffffffffffffffffffff1673ffffffffffffffffffffffffffffffffffffffff16815260200191505060405180910390f35b6101396105ee565b604051808273ffffffffffffffffffffffffffffffffffffffff1673ffffffffffffffffffffffffffffffffffffffff16815260200191505060405180910390f35b610183610614565b604051808273ffffffffffffffffffffffffffffffffffffffff1673ffffffffffffffffffffffffffffffffffffffff16815260200191505060405180910390f35b6101cd61063a565b604051808273ffffffffffffffffffffffffffffffffffffffff1673ffffffffffffffffffffffffffffffffffffffff16815260200191505060405180910390f35b61023b6004803603602081101561022557600080fd5b8101908080359060200190929190505050610660565b005b6102456107ce565b604051808273ffffffffffffffffffffffffffffffffffffffff1673ffffffffffffffffffffffffffffffffffffffff16815260200191505060405180910390f35b61028f6107f3565b604051808273ffffffffffffffffffffffffffffffffffffffff1673ffffffffffffffffffffffffffffffffffffffff16815260200191505060405180910390f35b610348600480360360208110156102e757600080fd5b810190808035906020019064010000000081111561030457600080fd5b82018360208201111561031657600080fd5b8035906020019184602083028401116401000000008311171561033857600080fd5b9091929391929390505050610819565b005b610352610857565b604051808273ffffffffffffffffffffffffffffffffffffffff1673ffffffffffffffffffffffffffffffffffffffff16815260200191505060405180910390f35b61040b600480360360208110156103aa57600080fd5b81019080803590602001906401000000008111156103c757600080fd5b8201836020820111156103d957600080fd5b803590602001918460208302840111640100000000831117156103fb57600080fd5b909192939192939050505061087d565b005b6104156108bb565b6040518082815260200191505060405180910390f35b6000806000809054906101000a900473ffffffffffffffffffffffffffffffffffffffff1673ffffffffffffffffffffffffffffffffffffffff1663267b6922846040518263ffffffff1660e01b81526004018082815260200191505060a06040518083038186803b1580156104a057600080fd5b505afa1580156104b4573d6000803e3d6000fd5b505050506040513d60a08110156104ca57600080fd5b810190808051906020019092919080519060200190929190805190602001909291908051906020019092919080519060200190929190505050505050915091506002600581111561051757fe5b82600581111561052357fe5b1461052d57600080fd5b60008173ffffffffffffffffffffffffffffffffffffffff16638da5cb5b6040518163ffffffff1660e01b815260040160206040518083038186803b15801561057557600080fd5b505afa158015610589573d6000803e3d6000fd5b505050506040513d602081101561059f57600080fd5b810190808051906020019092919050505090506105c28460001c826001546108c1565b50505050565b600560009054906101000a900473ffffffffffffffffffffffffffffffffffffffff1681565b600260009054906101000a900473ffffffffffffffffffffffffffffffffffffffff1681565b600360009054906101000a900473ffffffffffffffffffffffffffffffffffffffff1681565b600660009054906101000a900473ffffffffffffffffffffffffffffffffffffffff1681565b6000600260009054906101000a900473ffffffffffffffffffffffffffffffffffffffff1673ffffffffffffffffffffffffffffffffffffffff16636352211e836040518263ffffffff1660e01b81526004018082815260200191505060206040518083038186803b1580156106d557600080fd5b505afa1580156106e9573d6000803e3d6000fd5b505050506040513d60208110156106ff57600080fd5b810190808051906020019092919050505090506107ca8282600260009054906101000a900473ffffffffffffffffffffffffffffffffffffffff1673ffffffffffffffffffffffffffffffffffffffff1663d6e4fa86866040518263ffffffff1660e01b81526004018082815260200191505060206040518083038186803b15801561078a57600080fd5b505afa15801561079e573d6000803e3d6000fd5b505050506040513d60208110156107b457600080fd5b81019080805190602001909291905050506108c1565b5050565b6000809054906101000a900473ffffffffffffffffffffffffffffffffffffffff1681565b600760009054906101000a900473ffffffffffffffffffffffffffffffffffffffff1681565b60008090505b828290508110156108525761084583838381811061083957fe5b90506020020135610660565b808060010191505061081f565b505050565b600460009054906101000a900473ffffffffffffffffffffffffffffffffffffffff1681565b60008090505b828290508110156108b6576108a983838381811061089d57fe5b9050602002013561042b565b8080600101915050610883565b505050565b60085481565b60006008548460001b60405160200180838152602001828152602001925050506040516020818303038152906040528051906020012090506000600460009054906101000a900473ffffffffffffffffffffffffffffffffffffffff1673ffffffffffffffffffffffffffffffffffffffff166302571be3836040518263ffffffff1660e01b81526004018082815260200191505060206040518083038186803b15801561096e57600080fd5b505afa158015610982573d6000803e3d6000fd5b505050506040513d602081101561099857600080fd5b81019080805190602001909291905050509050600660009054906101000a900473ffffffffffffffffffffffffffffffffffffffff1673ffffffffffffffffffffffffffffffffffffffff168473ffffffffffffffffffffffffffffffffffffffff1614158015610a0e5750610a0d81611815565b5b15610b1957600360009054906101000a900473ffffffffffffffffffffffffffffffffffffffff1673ffffffffffffffffffffffffffffffffffffffff16630e297b458686610a66428861182290919063ffffffff16565b6040518463ffffffff1660e01b8152600401808481526020018373ffffffffffffffffffffffffffffffffffffffff1673ffffffffffffffffffffffffffffffffffffffff1681526020018281526020019350505050602060405180830381600087803b158015610ad657600080fd5b505af1158015610aea573d6000803e3d6000fd5b505050506040513d6020811015610b0057600080fd5b8101908080519060200190929190505050505050611810565b600360009054906101000a900473ffffffffffffffffffffffffffffffffffffffff1673ffffffffffffffffffffffffffffffffffffffff1663fca247ac8630610b6c428861182290919063ffffffff16565b6040518463ffffffff1660e01b8152600401808481526020018373ffffffffffffffffffffffffffffffffffffffff1673ffffffffffffffffffffffffffffffffffffffff1681526020018281526020019350505050602060405180830381600087803b158015610bdc57600080fd5b505af1158015610bf0573d6000803e3d6000fd5b505050506040513d6020811015610c0657600080fd5b8101908080519060200190929190505050506000600460009054906101000a900473ffffffffffffffffffffffffffffffffffffffff1673ffffffffffffffffffffffffffffffffffffffff16630178b8bf846040518263ffffffff1660e01b81526004018082815260200191505060206040518083038186803b158015610c8d57600080fd5b505afa158015610ca1573d6000803e3d6000fd5b505050506040513d6020811015610cb757600080fd5b81019080805190602001909291905050509050600073ffffffffffffffffffffffffffffffffffffffff168173ffffffffffffffffffffffffffffffffffffffff1614610dc057600560009054906101000a900473ffffffffffffffffffffffffffffffffffffffff1673ffffffffffffffffffffffffffffffffffffffff16631896f70a84836040518363ffffffff1660e01b8152600401808381526020018273ffffffffffffffffffffffffffffffffffffffff1673ffffffffffffffffffffffffffffffffffffffff16815260200192505050600060405180830381600087803b158015610da757600080fd5b505af1158015610dbb573d6000803e3d6000fd5b505050505b6000600460009054906101000a900473ffffffffffffffffffffffffffffffffffffffff1673ffffffffffffffffffffffffffffffffffffffff166316a25cbd856040518263ffffffff1660e01b81526004018082815260200191505060206040518083038186803b158015610e3557600080fd5b505afa158015610e49573d6000803e3d6000fd5b505050506040513d6020811015610e5f57600080fd5b8101908080519060200190929190505050905060008167ffffffffffffffff1614610f2e57600560009054906101000a900473ffffffffffffffffffffffffffffffffffffffff1673ffffffffffffffffffffffffffffffffffffffff166314ab903885836040518363ffffffff1660e01b8152600401808381526020018267ffffffffffffffff1667ffffffffffffffff16815260200192505050600060405180830381600087803b158015610f1557600080fd5b505af1158015610f29573d6000803e3d6000fd5b505050505b600660009054906101000a900473ffffffffffffffffffffffffffffffffffffffff1673ffffffffffffffffffffffffffffffffffffffff168673ffffffffffffffffffffffffffffffffffffffff16148015610fb85750600073ffffffffffffffffffffffffffffffffffffffff168673ffffffffffffffffffffffffffffffffffffffff1614155b15611562576060600080600660009054906101000a900473ffffffffffffffffffffffffffffffffffffffff1673ffffffffffffffffffffffffffffffffffffffff16632eef3d658b60001b6040518060400160405280600881526020017fffffffffffffffff0000000000000000000000000000000000000000000000008152506040518363ffffffff1660e01b81526004018083815260200180602001828103825283818151815260200191508051906020019080838360005b8381101561108f578082015181840152602081019050611074565b50505050905090810190601f1680156110bc5780820380516001836020036101000a031916815260200191505b50935050505060006040518083038186803b1580156110da57600080fd5b505afa1580156110ee573d6000803e3d6000fd5b505050506040513d6000823e3d601f19601f82011682018060405250608081101561111857600080fd5b810190808051604051939291908464010000000082111561113857600080fd5b8382019150602082018581111561114e57600080fd5b825186600182028301116401000000008211171561116b57600080fd5b8083526020830192505050908051906020019080838360005b8381101561119f578082015181840152602081019050611184565b50505050905090810190601f1680156111cc5780820380516001836020036101000a031916815260200191505b50604052602001805190602001909291908051906020019092919080519060200190929190505050935050925092506000600660009054906101000a900473ffffffffffffffffffffffffffffffffffffffff1673ffffffffffffffffffffffffffffffffffffffff166302571be38c60001b6040518263ffffffff1660e01b81526004018082815260200191505060206040518083038186803b15801561127357600080fd5b505afa158015611287573d6000803e3d6000fd5b505050506040513d602081101561129d57600080fd5b8101908080519060200190929190505050905060008451141561130b576040517f08c379a000000000000000000000000000000000000000000000000000000000815260040180806020018281038252602f815260200180611843602f913960400191505060405180910390fd5b600360009054906101000a900473ffffffffffffffffffffffffffffffffffffffff1673ffffffffffffffffffffffffffffffffffffffff1663095ea7b3600760009054906101000a900473ffffffffffffffffffffffffffffffffffffffff168d6040518363ffffffff1660e01b8152600401808373ffffffffffffffffffffffffffffffffffffffff1673ffffffffffffffffffffffffffffffffffffffff16815260200182815260200192505050600060405180830381600087803b1580156113d657600080fd5b505af11580156113ea573d6000803e3d6000fd5b50505050600760009054906101000a900473ffffffffffffffffffffffffffffffffffffffff1673ffffffffffffffffffffffffffffffffffffffff1663cf7752558585858560006040518663ffffffff1660e01b815260040180806020018681526020018581526020018473ffffffffffffffffffffffffffffffffffffffff1673ffffffffffffffffffffffffffffffffffffffff1681526020018373ffffffffffffffffffffffffffffffffffffffff1673ffffffffffffffffffffffffffffffffffffffff168152602001828103825287818151815260200191508051906020019080838360005b838110156114f15780820151818401526020810190506114d6565b50505050905090810190601f16801561151e5780820380516001836020036101000a031916815260200191505b509650505050505050600060405180830381600087803b15801561154157600080fd5b505af1158015611555573d6000803e3d6000fd5b5050505050505050611719565b600560009054906101000a900473ffffffffffffffffffffffffffffffffffffffff1673ffffffffffffffffffffffffffffffffffffffff16635b0fc9c385856040518363ffffffff1660e01b8152600401808381526020018273ffffffffffffffffffffffffffffffffffffffff1673ffffffffffffffffffffffffffffffffffffffff16815260200192505050600060405180830381600087803b15801561160b57600080fd5b505af115801561161f573d6000803e3d6000fd5b50505050600360009054906101000a900473ffffffffffffffffffffffffffffffffffffffff1673ffffffffffffffffffffffffffffffffffffffff166323b872dd30888a6040518463ffffffff1660e01b8152600401808473ffffffffffffffffffffffffffffffffffffffff1673ffffffffffffffffffffffffffffffffffffffff1681526020018373ffffffffffffffffffffffffffffffffffffffff1673ffffffffffffffffffffffffffffffffffffffff1681526020018281526020019350505050600060405180830381600087803b15801561170057600080fd5b505af1158015611714573d6000803e3d6000fd5b505050505b600460009054906101000a900473ffffffffffffffffffffffffffffffffffffffff1673ffffffffffffffffffffffffffffffffffffffff166306ab59236008548960001b306040518463ffffffff1660e01b8152600401808481526020018381526020018273ffffffffffffffffffffffffffffffffffffffff1673ffffffffffffffffffffffffffffffffffffffff1681526020019350505050602060405180830381600087803b1580156117cf57600080fd5b505af11580156117e3573d6000803e3d6000fd5b505050506040513d60208110156117f957600080fd5b810190808051906020019092919050505050505050505b505050565b6000813b19199050919050565b60008282111561183157600080fd5b60008284039050809150509291505056fe556e61626c6520746f206d69677261746520646f6d61696e206f6e20737562646f6d61696e20726567697374726172a265627a7a723158209a35bf408d98883bf177340388ace32f17d2274afeca6cbce04d027adf3f650d64736f6c63430005100032",
  "source": "pragma solidity ^0.5.0;\n\nimport \"@ensdomains/ens/contracts/ENS.sol\";\nimport \"@ensdomains/ens/contracts/Registrar.sol\";\nimport \"@ensdomains/subdomain-registrar/contracts/AbstractSubdomainRegistrar.sol\";\nimport \"./BaseRegistrarImplementation.sol\";\nimport \"./OldBaseRegistrarImplementation.sol\";\n\ncontract RegistrarMigration {\n    using SafeMath for uint;\n\n    bytes constant private UNUSED_SUBDOMAIN = hex'ffffffffffffffff';\n\n    Registrar public legacyRegistrar;\n    uint transferPeriodEnds;\n    OldBaseRegistrarImplementation public oldRegistrar;\n    BaseRegistrarImplementation public newRegistrar;\n    ENS public oldENS;\n    ENS public newENS;\n    AbstractSubdomainRegistrar public oldSubdomainRegistrar;\n    AbstractSubdomainRegistrar public newSubdomainRegistrar;\n\n    bytes32 public baseNode;\n\n    constructor(OldBaseRegistrarImplementation _old, BaseRegistrarImplementation _new, AbstractSubdomainRegistrar _oldSubdomainRegistrar, AbstractSubdomainRegistrar _newSubdomainRegistrar) public {\n        oldRegistrar = _old;\n        oldENS = _old.ens();\n        baseNode = _old.baseNode();\n        legacyRegistrar = _old.previousRegistrar();\n        transferPeriodEnds = _old.transferPeriodEnds();\n        oldSubdomainRegistrar = _oldSubdomainRegistrar;\n\n        newRegistrar = _new;\n        newENS = _new.ens();\n        require(_new.baseNode() == baseNode);\n        newSubdomainRegistrar = _newSubdomainRegistrar;\n    }\n\n    function doMigration(uint256 tokenId, address registrant, uint expires) internal {\n        bytes32 node = keccak256(abi.encodePacked(baseNode, bytes32(tokenId)));\n        address controller = oldENS.owner(node);\n\n        if(address(registrant) != address(oldSubdomainRegistrar) && hasCode(controller)) {\n            // For names controlled by a contract or not in ENS, only migrate over the registration\n            newRegistrar.registerOnly(tokenId, registrant, expires.sub(now));\n            return;\n        }\n\n        // Register the name on the new registry with the same expiry time.\n        newRegistrar.register(tokenId, address(this), expires.sub(now));\n\n        // Copy over resolver, TTL and owner to the new registry.\n        address resolver = oldENS.resolver(node);\n        if(resolver != address(0)) {\n            newENS.setResolver(node, resolver);\n        }\n\n        uint64 ttl = oldENS.ttl(node);\n        if(ttl != 0) {\n            newENS.setTTL(node, ttl);\n        }\n\n        if(address(registrant) == address(oldSubdomainRegistrar) && address(registrant) != address(0)) {\n            // Handle subdomain registrar domains\n            // Fetch data from the old subdomain registrar\n            (string memory label, uint price,, uint referralFeePPM) = oldSubdomainRegistrar.query(bytes32(tokenId), string(UNUSED_SUBDOMAIN));\n            address owner = oldSubdomainRegistrar.owner(bytes32(tokenId));\n            if(bytes(label).length == 0) {\n              revert(\"Unable to migrate domain on subdomain registrar\");\n            }\n\n            // Transfer to the new subdomain registrar\n            newRegistrar.approve(address(newSubdomainRegistrar), tokenId);\n            newSubdomainRegistrar.configureDomainFor(label, price, referralFeePPM, address(uint160(owner)), address(0));\n        } else {\n            newENS.setOwner(node, controller);\n\n            // Transfer the registration to the registrant.\n            newRegistrar.transferFrom(address(this), registrant, tokenId);\n        }\n\n        // Replace ownership on the old registry so it can't be updated any further.\n        oldENS.setSubnodeOwner(baseNode, bytes32(tokenId), address(this));\n    }\n\n    /**\n     * @dev Migrate a name from the previous version of the BaseRegistrar\n     */\n    function migrate(uint256 tokenId) public {\n        address registrant = oldRegistrar.ownerOf(tokenId);\n        doMigration(tokenId, registrant, oldRegistrar.nameExpires(tokenId));\n    }\n\n    /**\n     * @dev Migrate a list of names from the previous version of the BaseRegistrar.\n     */\n    function migrateAll(uint256[] calldata tokenIds) external {\n        for(uint i = 0; i < tokenIds.length; i++) {\n            migrate(tokenIds[i]);\n        }\n    }\n\n    /**\n     * @dev Migrate a name from the legacy (auction-based) registrar.\n     */\n    function migrateLegacy(bytes32 label) public {\n        (Registrar.Mode mode, address deed, , ,) = legacyRegistrar.entries(label);\n        require(mode == Registrar.Mode.Owned);\n        address owner = Deed(deed).owner();\n        doMigration(uint256(label), owner, transferPeriodEnds);\n    }\n\n    /**\n     * @dev Migrate a list of names from the legacy (auction-based) registrar.\n     */\n    function migrateAllLegacy(bytes32[] calldata labels) external {\n        for(uint i = 0; i < labels.length; i++) {\n            migrateLegacy(labels[i]);\n        }\n    }\n\n    function hasCode(address addr) private view returns(bool ret) {\n        assembly {\n            ret := not(not(extcodesize(addr)))\n        }\n    }\n}\n",
  "sourcePath": "@ensdomains/ethregistrar/contracts/RegistrarMigration.sol",
  "compiler": {
    "name": "solc",
    "version": "0.5.16+commit.9c3226ce.Emscripten.clang"
  },
  "schemaVersion": "3.0.22",
  "updatedAt": "2020-01-30T03:06:32.375Z",
  "networkType": "ethereum",
  "devdoc": {
    "methods": {
      "migrate(uint256)": {
        "details": "Migrate a name from the previous version of the BaseRegistrar"
      },
      "migrateAll(uint256[])": {
        "details": "Migrate a list of names from the previous version of the BaseRegistrar."
      },
      "migrateAllLegacy(bytes32[])": {
        "details": "Migrate a list of names from the legacy (auction-based) registrar."
      },
      "migrateLegacy(bytes32)": {
        "details": "Migrate a name from the legacy (auction-based) registrar."
      }
    }
  },
  "userdoc": {
    "methods": {}
  }
}